:100000000C941B1E0C94431E0C94431E0C94431E14
:100010000C94431E0C94431E0C94431E0C94431EDC
:100020000C94431E0C94431E0C94431E0C94431ECC
:100030000C94431E0C94431E0C94431E0C94431EBC
:100040000C94431E0C94431E0C94431E0C94431EAC
:100050000C94431E0C94431E0C94431E0C942F27A7
:100060000C94431E0C94431E0C94431E0C94431E8C
:100070000C94431E0C94431E0C94431E0C94431E7C
:100080000C9479270C94431E0C94431E0C94431E2D
:100090000C94431E0C94431E0C94431E0C94431E5C
:1000A0000C94431E0C94431E0C94431E0C0C040A27
:1000B00031DA018182544448300000000000010020
:1000C0000000000000000C0C000038448C0A014ABB
:1000D000B400000000000000010609040300000055
:1000E0000C0C0030484454828101DA310A040000CB
:1000F000000000000001000000000C0C003048442B
:1001000054828101DA310A0400000000000000017D
:10011000000000000C0C000000B44A010A8C4438B6
:1001200000000000000304090601000000000C0CA0
:10013000040A31DA01818254444830000000000092
:100140000100000000000000080B00E01E8185494E
:100150003A0401020402000000000C081028245494
:1001600048888888A84428100C08102824544C4239
:1001700041212D4628100C08102844A8888888485A
:10018000542428100C081028462D2141424C542498
:1001900028100C0C040E3FFEFFFFFE7C7C78300024
:1001A0000000000001000000000000000C0C000036
:1001B000C0E0F8FEFFFEDC000000000001030307C2
:1001C0000F07020000000C0C0030787C7CFEFFFF63
:1001D000FE3F0E04000000000000000100000000CF
:1001E0000C0C0030787C7CFEFFFFFE3F0E0400000C
:1001F000000000000001000000000C0C000000DC0A
:10020000FEFFFEF8E0C0000000000002070F070339
:10021000030100000C0C040E3FFEFFFFFE7C7C7807
:100220003000000000000100000000000000080B8A
:1002300000E0FEFFFF7F3E04010307030000000013
:100240000C0810383C7C78F8F8F8F87C38100C086A
:1002500010383C7C7C7E7F3F3F7E38100C08103885
:100260007CF8F8F8F8787C3C38100C0810387E3FA1
:100270003F7F7E7C7C3C3810100E3048B4A88C92B6
:10028000355D510A02CCD4B448380000000609128A
:10029000141019202824130C0000100E60906850D0
:1002A0000C92355D510A02E42A5A24180000010D0F
:1002B0001325282019101412090600000E0DF80449
:1002C000020A515D35122C28D454A85001020404AE
:1002D000090404080B09040300000E0DF804020AC7
:1002E000515D35926C48B49468900102040409147D
:1002F00008101612090601000E0D50A854D4282C1F
:1003000012355D510A0204F800000304090B0804C9
:100310000409040402010E0D906894B4486C9235EF
:100320005D510A0204F800010609121610081409AA
:1003300004040201120C0814AAAD620282CAD1DDC3
:1003400035924C48B454281002050A0808040405E4
:100350000504080005010A040000120C1028545A74
:10036000C40484CAD1DD35928C9068A85020000066
:1003700000040B0400010104000B04000100000054
:10038000120C2050A868908C9235DDD1CA8404C428
:100390005A5428100000000100040B000401010061
:1003A000040B04000000120C000000102CD2359D3C
:1003B000110A020CF08000000000000000000C0395
:1003C00008010B000008090609000000100E60F08B
:1003D000F8F0FCFEFFFFFFFEFEFC3E7E3C18000036
:1003E000010D1F3F3F3F1F1F1F1F0F060000100E74
:1003F0003078FCF8FCFEFFFFFFFEFEFCFCFC7838CA
:10040000000000060F1F1F1F1F3F3F3F1F0C000073
:100410000E0DF8FCFEFEFFFFFFFEFCF8FCFCF850A2
:10042000010307070F07070F0F0F070300000E0D4B
:10043000F8FCFEFEFFFFFFFEFCF8FCFCF890010359
:1004400007070F1F0F1F1F1F0F0701000E0D50F88A
:10045000FCFCF8FCFEFFFFFFFEFEFCF800000307BB
:100460000F0F0F07070F070703010E0D90F8FCFC95
:10047000F8FCFEFFFFFFFEFEFCF80001070F1F1F48
:100480001F0F1F0F07070301120C081CBEBFFEFE43
:10049000FEFEFFFFFFFEFCF8FC7C381002070F0F8A
:1004A0000F07070707070F0F0F0F0E040000120CAE
:1004B00010387C7EFCFCFCFEFFFFFFFEFCF0F8F831
:1004C0007020000000040F0F0F0F0F0F0F0F04001C
:1004D00001000000120C2070F8F8F0FCFEFFFFFF96
:1004E000FEFCFCFC7E7C38100000000100040F0FB5
:1004F0000F0F0F0F0F0F04000000120C0000001070
:100500003CFEFFFFFFFEFEFCF0800000000000004C
:1005100000000C0F0F0F0F0F0F0F0F0F090000003F
:100520000B22000B22000B22000B22000B22000BDF
:1005300022000D20000F1E01111C01131A021518B4
:10054000021716031914031B12041D10041F0E05B5
:10055000210C05230A062508062706072904072B70
:1005600002002D00002FFE0131FC0133FC0235FAA0
:100570000237FA0239FA023BF8023DF8023FF8026C
:1005800041F80243FA0245FA0247FA0249FC024BDB
:10059000FC034DFE004F00005102015304015506BB
:1005A00002570802590A035B0C030000050B2200E6
:1005B0000B22000B22000B22000B22000B22000D4D
:1005C00020000F1E01111C01131A02151802171624
:1005D000031914031B12041D10041F0E05210C0522
:1005E000230A062508062706072904072B02002DE3
:1005F00000002FFE0131FC0133FC0235FC0237FC08
:10060000033AFE003C00003E0201400401420602A3
:10061000440802460A03480C030000040B22000BA6
:1006200022000B22000B22000B22000B22000C20C8
:10063000000D1E010E1C010F1A02101802111603E4
:10064000121403131204141004150E05160C0517CA
:100650000A061808061906071A04071B02001C00E0
:10066000001DFE011EFC011FFC0220FA0221FA03FC
:1006700022FA0323FA0024FA0025FA0026FA0027BA
:10068000FA0228FA0229FA032AFA062BFA062CFCA7
:10069000072DFC072EFE002F00003002013104015F
:1006A000320602330802340A03350C030000030B40
:1006B00022000B22000B22000B22000B22000B2237
:1006C000000B20000C1E010C1C010D1A020D18025B
:1006D0000E16030E14030F12040F1004100E051053
:1006E0000C05110A06110806120607120407130268
:1006F0000013000013FE0113FC0113FC0214FA02A4
:1007000014FA0315FA0315FA0016FA0016FA00187F
:10071000FA0018FA0019FA0019FA021AFA021AFA7B
:10072000031BFA031BFA041CFA041CFA051DFC0740
:100730001DFC071EFE001E00001F02011F040120F9
:100740000602200802210A03210C03000002190CF2
:10075000040A150A09150A122A1424542848A85014
:100760009050A04020A02040800000000000000029
:1007700000000000000000000000010F000206025F
:10078000000F0F083048A858242A120D7A0111359D
:1007900011027C0F087C02113511017A0D122A24F6
:1007A00058A84830190C804020A02040A0509050FC
:1007B000A848285424142A120A15090A150A040FF5
:1007C00000020602000F010000000000000000000F
:1007D0000000000000000000190C040E1F0E0F1F87
:1007E0000E1E3E1C3C7C3878F870F0F0E0C0E0E073
:1007F000E0C08000000000000000000000000000D9
:1008000000000000010F0F0F0F0F0F0F0F083078BF
:10081000F8783C3E1E0F7F7F7F7F7F7E7C0F087CB9
:100820007E7F7F7F7F7F0F1E3E3C78F87830190CEB
:1008300080C0E0E0E0C0E0F0F070F878387C3C1C6C
:100840003E1E0E1F0F0E1F0E040F0F0F0F0F0F0F68
:100850000100000000000000000000000000000097
:100860000000221200000000000000000080402074
:1008700010E8146482F2CAB488708000000000009E
:10088000000000000000000000000000007C820169
:100890000060C01011D8D347AD4E8A32C9D640A0EF
:1008A0004080000000000000000000000000000088
:1008B000030002020003000103030102010201031D
:1008C00003010201000000000000221200000000ED
:1008D000000000000080403008748A32C1F9E55AF7
:1008E0004438C000000000000000000000000000CC
:1008F00000000000C03C02010060C00808ECF9A341
:10090000D627C519E4EBA8D020C0000000000000E5
:1009100000000000000102000200010002010202CA
:1009200001010201000102010102010000000000BA
:100930000000221200000000000000000080403093
:1009400008748A32C1F9E55A4438C000000000003A
:10095000000000000000000000000000007C820198
:100960000060800808CCD943A64715E9E4ABD02045
:10097000C0000000000000000000000000000000B7
:10098000030002020102000103030102010201014E
:100990000201000000000000000022120000000020
:1009A000000000000080403008748A32C1F9E55A26
:1009B0004438C000000000000000000000000000FB
:1009C00000000000007C82010060800808CCD94350
:1009D000A64725C9D453A0408000000000000000B5
:1009E00000000000000000000300020201020001FC
:1009F00003030102000103030102010000000000E3
:100A00000000221300609068A868A8502010D03021
:100A10000884F2CAA2A2CAF28408305010204040D2
:100A20008000000000000000000102040404844271
:100A3000241802850E0AAAAA0A0E05021876880C46
:100A400012252D252D120C000000000000000000D2
:100A50000100010101010100010100020302020283
:100A6000000300000000000000002213000000004E
:100A700000804040201050300884F2CAA2A2CAF27E
:100A8000840830D0102050A868A868906000000C3E
:100A9000122D252D25120C88761802050E0AAAAAF9
:100AA0000A0E850218244284040404020100000096
:100AB0000000000000000000030002020203020028
:100AC000010100010101010100010000000000001E
:100AD0000000221200609068A868A8502010D03052
:100AE0000884F2CAA2A2CAF2840830D0102050A80A
:100AF00068A868906000000000010204040484C239
:100B0000241802850E0AAAAA0A0E85021824C20415
:100B100004040402010000000000000000000000C6
:100B200001000101010101000101000101010101B8
:100B30000001000000000000000022120000000080
:100B4000000000000080C0E0F0F8FCFCFEFEFEFCAF
:100B5000F8F080000000000000000000000000002D
:100B600000000000007CFEFFFFFFFFFFFFFFFFFF14
:100B7000FFFFFFFFFFF6E0E0C08000000000000084
:100B8000000000000000000003030303030303034D
:100B90000303030303030303030303010000000033
:100BA0000000221200000000000000000080C0F0E1
:100BB000F8FCFEFEFFFFFFFEFCF8C0000000000096
:100BC000000000000000000000000000C0FCFEFF6C
:100BD000FFFFFFFFFFFFFFFFFFFFFFFFFFFBF8F03F
:100BE000E0C000000000000000000000000103035E
:100BF00003030303030303030303030303030303C5
:100C000003030100000000000000221200000000A9
:100C1000000000000080C0F0F8FCFEFEFFFFFFFEB9
:100C2000FCF8C00000000000000000000000000010
:100C300000000000007CFEFFFFFFFFFFFFFFFFFF43
:100C4000FFFFFFFFFFFBF0E0C0000000000000001E
:100C5000000000000000000003030303030303037C
:100C60000303030303030303030100000000000068
:100C70000000221200000000000000000080C0F010
:100C8000F8FCFEFEFFFFFFFEFCF8C00000000000C5
:100C9000000000000000000000000000007CFEFFDB
:100CA000FFFFFFFFFFFFFFFFFFFFFFFFF7F3E0C0C6
:100CB00080000000000000000000000000000000B4
:100CC00003030303030303030303030303030303F4
:100CD0000303010000000000000022130060F0F890
:100CE000F8F8F8F0E0F0F0F0F8FCFEFEFEFEFEFE94
:100CF000FCF8F0F0F0E0C0C0800000000000000050
:100D000000010307070787C3E7FFFFFFFFFFFFFFA0
:100D1000FFFFFFFFFFFF8F0F1F3F3F3F3F1E0C00F6
:100D200000000000000000000101010101010101BB
:100D3000010101030303030303030000000000009B
:100D400000002213000000000080C0C0E0F0F0F0BE
:100D5000F8FCFEFEFEFEFEFEFCF8F0F0F0E0F0F81F
:100D6000F8F8F8F06000000C1E3F3F3F3F1F0F8F68
:100D7000FFFFFFFFFFFFFFFFFFFFFFFFFFE7C3874F
:100D8000070707030100000000000000000000004A
:100D90000303030303030301010101010101010135
:100DA0000101000000000000000022120060F0F8C5
:100DB000F8F8F8F0F0F0F0F0F8FCFEFEFEFEFEFEB3
:100DC000FCF8F0F0F0F0F0F8F8F8F8F0600000004F
:100DD00000010307070787C3E7FFFFFFFFFFFFFFD0
:100DE000FFFFFFFFFFE7C30707070703010000003E
:100DF00000000000000000000303030303030303DB
:100E000001010303030303030303000000000000C8
:100E10000000D5F08D14A1C881CFD9F1AF20000F0B
:100E200008E0FBE0FFE0FAE0FFE0FAE4FFE0EEF1CB
:100E30000F08E0EAEEFFE0FAE0FFE8EAE2FFF8E39D
:100E4000F80628C03FC03FC2B5FFA619E69977FF54
:100E50008F708F70DDFF619E619EE1172F162B153D
:100E60002A0528C23FC03FC099E619A6FB708F70C3
:100E70008FFF9E619EE1FF2B152B152F2918E7E5AB
:100E8000E50505C5C56525A52565C5C50565E5E572
:100E9000E56565E5E5E5C5050565E5E5E5656565E2
:100EA000E5E50505FD01FFF979F9001F7FBF7E7DAE
:100EB00041557EBF7F1FE07F7F7FE65EBF7F7F73F0
:100EC000E000F07F7F7F66666070F00000FF00FF4B
:100ED000E9E9E9E8E8E8E8E9E9E9E9E9E8E8E8E989
:100EE000E9E9E9E9E8E8E9E9E9E9E829C929C929F5
:100EF000C9E9E9E9E8E8EFE0FF1920FFFFFF7FFF1C
:100F00001F0F0707C323A1A141A1A323C70FFF7F81
:100F10007F7FFFFF938D9E8B0610181C1C1F909BDC
:100F20009888908B98071E1812839D8E11FFFFFFE3
:100F3000810000000000C7CFDF9DB9FBF3E300FC98
:100F4000FFFFFFC38181A5A5A5A7A0A0A0A0A0A782
:100F5000A5A2A5A5A5A5A3A0A1A2A2A5A5A7A229D2
:100F600018FF01FD050565E5E5E5650565E5E5E5D0
:100F7000650565E5E5E5650505C5C5E5E56565C5A1
:100F8000E5E50565E5E5E5650567FF00FF0000E0CF
:100F90007F7F7FE606E67F7F7FE000E07F7F7FE068
:100FA000007FBFBF7F70606C7CBC7C00E07F7F7F78
:100FB000E606E6FFE0EFE8E8E9E9E929C928C929FA
:100FC000C9E9E9E8E9E9E9E9E9E8E8E8E8E9E9E9B6
:100FD000E9E9E8E8E8E9E9E9E9E9E8E90608F1CE5C
:100FE000B14EB1CE1F1600FEFEFEFEFEFEFEFEFE60
:100FF000FEFEFEFEFEFEFEFEFEFEFEFEFEFEFEFE11
:10100000FEFEFEFE00E0EFEFEFEFEFEFEFCFAFB74A
:101010008F0F0F2F4777D74F8FCFB7AFCFEFEFEFB0
:10102000EFEFEFE03F3F3F3F3F3F3F3F3F1F272175
:10103000002237373300222F1F3F3F3F3F3F3F3FC4
:101040003F3F3F6308050B050B070B072F2F2F2F83
:101050000F0F0F0F4F4F0F0F0F0F0F0F0F0F0F0F20
:101060000F0F0F0F0F0F0F0F0F0F0F0F0F0F0F0F90
:1010700007090800080D0D0C00080B070F0F0F0FD4
:101080000F0F0F0F0F0F0F0F0F0F0F0F0F0F0F0F70
:101090000F0F0F0F0F0F4F4F0F0F0F0F2F2F2F2F60
:1010A000070B070B050B050B0F40FE7DAA55AA5534
:1010B000AA552A050A150200000B050A050A112087
:1010C00050A00000000000002A752AB52A55AAD5B4
:1010D000AAD4AA050A0000FCF0EF50687838100086
:1010E000000000000000FEFEFCFC7CFE5EA6462424
:1010F0004000000000FFBF5DAA55AA55AA55A8549C
:10110000A0400000FE7DAA54A854A8502000000072
:101110000000000B050A050A112050A00000000085
:1011200000000F40000002150A052A55AA55AA55CD
:10113000AA7DFE000000000000A05020110A050A50
:10114000050B00000A05AAD4AAD5AA552AB52A7506
:101150002A000000000000001038786850EFF0FC12
:1011600000000000402446A65EFE7CFCFCFEFE0063
:101170000040A054A855AA55AA55AA5DBFFF00007B
:10118000000000002050A854A854AA7DFE000000D2
:10119000000000A04020010A050A050B0000000025
:1011A000000000000000000000000080C0E0F0F837
:1011B000FCFCFEFEFFFFFFFFFEFEFCF8F0C0C0C01F
:1011C000800000000000000000000000000000FCA3
:1011D000FCFCFCFCFCFCFCFCFCFCFCFCFEFFFFFF44
:1011E000FFFFFFFFFFFFFFFFFFFFFFFFFFFFFFFF0F
:1011F000FFFFFFFFFFFEFCFCFCFCFCFCFCFCFCFC1E
:10120000FCFCFFFFFFFFFFFFFFFFFFFFFFFFFFFFF4
:10121000FFFFFFFFFFFFFFFFFFFFFFFFFFFFFFFFDE
:10122000FFFFFFFFFFFFFFFFFFFFFFFFFFFFFFFFCE
:10123000FFFFFFFFFF0F0F0F0F0F0F0F0F0F0F0F0E
:101240000F0F0F0F0F0F0F0F0F0F0F0F0F0F0F0FAE
:101250000F0F0F0F0F0F0F0F0F0F0F0F0F0F0F0F9E
:101260000F0F0F0F0F0F0F0F331C000000000000B7
:101270000000000000000000008040E010080404AE
:10128000C222A1A141A1A222C408F0404040800096
:1012900000000000000000000000000000FC04F45A
:1012A00014D4D4D4D4D4D4D4D49C120DDECBC6D090
:1012B000D81C1CDFD0DBD808D0CBD8079ED8D243AF
:1012C000DDCED11ED4D4D4D4D4D4D4D414F404FCDC
:1012D000FF00FF00F0BFBFBFF606070703F0BCBF6B
:1012E000FF09FFBFBCF0007FBFBFB0BF7F0000F9A8
:1012F000BB57B7BEBE7C00F0BFBFBFB6B6B1F100F2
:10130000FF00FF0F080B0A0A0A0A0A0A0A0A0A0A59
:101310000A0A0A0A0A0A0A0A0A0A0A0A0A0A0A0A2D
:101320000A0A0A0A0A0A0A0A0A0A0A0A0A0A0A0A1D
:101330000A0A0A0B080FC0F0F8FCFEFEFFFFFFFFD1
:10134000FFFFFFFFFFFFFFFFFFFFFFFFFFFFFFFFAD
:10135000FFFFFFFFFFFFFFFFFFFFFFFFFFFFFFFF9D
:10136000FFFFFFFFFFFFFFFFFFFFFFFFFFFFFFFF8D
:10137000FFFFFFFFFFFFFFFFFFFFFFFFFF0F3F7FAD
:10138000FFFFFFFFFFFFFFFFFFFFFFFFFFFFFFFF6D
:10139000FFFFFFFFFFFFFFFFFFFFFFFFFFFFFFFF5D
:1013A000FFFFFFFFFFFFFFFFFFFFFFFFFFFFFFFF4D
:1013B000FFFFFFFFFFFFFFFFFFFFFFFFFFFFFFFF3D
:1013C000FDFDFDFD00E0F8FCFEFFFFFFFFFFFFFF5E
:1013D000FFFFFFFFFFFFFFFFFFFFFFFFFFFFFFFF1D
:1013E000FFFFFFFFFFFFFFFFFFFFFFFFFFFFFFFF0D
:1013F000FFFFFFFFFFFFFFFFFFFFFFFFFFFFFFFFFD
:10140000FFFFFFFFFFFFFFFB730303003F7FFFFFB3
:10141000FFFFFFFFFFFFFFFFFFFFFFFFFFFFFFFFDC
:10142000FFFFFFFFFFFFFFFFFFFFFFFFFFFFFFFFCC
:10143000FFFFFFFFFFFFFFFFFFFFFFFFFFFFFFFFBC
:10144000FFFFFFFFFFFFFFFFFFFFFFFFFFFFF9F0C1
:101450000000000000000101030303030303030372
:10146000030303030303030303030303030303034C
:10147000030303030303030303030303030303033C
:10148000030303030303030303030303030303032C
:1014900003030303030303000047220000C0F0F826
:1014A000F8FCFC3C1C1C1C387C7C7C000000000010
:1014B000FCFCFC7C7CFCFCFCFC000000001CFCFC3C
:1014C000FC3CFCFCFCF8C080F0FC3CFCFCFCFCFCA4
:1014D0001C00001CFCFCFCFCFC1C1C1C7C7C7C7CA4
:1014E000000000000F3F3F7F7FFFB0A0A0A6FE7E60
:1014F0007E3E0E00E0B8BFBFFF0F0C0CEFBFBFBFBA
:10150000BFB8E000E0BFBFBFE001073FFFBF7F0FF4
:1015100001E0BFBFBFBFBFE00000E0BFBFBFBFBFB4
:10152000A7A7A7B0B0B0F00000000000C0F0F8F826
:101530008C446464448CF8F8F0C0001C3CFCFCFC57
:10154000FCDC00001CFCFCFC3C1C001CFCFCFCFC4F
:10155000FCFC9C9C9C3C3C3C3C00001CFCFCFCFCC3
:10156000FCFC9C9C9CFCFCFCF8F87000000000005B
:101570000000001F2F5F5FBFBFA0A0A5BF5F5F2F50
:101580001F00000001073FFFBFBFB8FF3F0F010072
:101590000000E0BFBFBFBFBFBFA3A3A3B8B8B8F8E8
:1015A0000000E0BFBFBFBFBFBFF3030F3FFFBFBF20
:1015B000B9B0E000000000000000000000000000E2
:1015C000000000000000000000000000000000001B
:1015D000000000000000000000000000000000000B
:1015E00000000000000000000000000000000000FB
:1015F0000000000000000000000000000000840166
:10160000760168015A0148012E011401FA00E00038
:10161000C600AC006A025C024E0240022E021402B6
:10162000FA01E001C601AC01920108082058244AE1
:1016300029120D02020D12294A2458200808207888
:101640007C7E3F1F0F02020F1F3F7E7C7820090720
:101650000F31495149522458200F394D594D5932B3
:101660005C2009070F3F7F7F7F7E3C78200F3F7F04
:101670007F7F7F3E7C20120C0000000080F00C0277
:101680000A119D35D22C1000000000000009060947
:101690000800000B0108030C00000000120C000001
:1016A000000080F0FCFEFEFFFFFFFE3C100000008B
:1016B000000000090F0F0F0F0F0F0F0F0F0C00008E
:1016C0000000A60376168003F42E5A033403160393
:1016D000F802DA02BC029A027802FA049C16D404D8
:1016E0001A2FAE0488046A044C042E041004EE037E
:1016F000CC030002040608090A0A0B0B0C0C0C0DA3
:101700000D0D0D0D0D0D0D0D0D0D0D0C0C0C0B0B10
:101710000A0908060402000B17040B17040B170430
:101720000B17040B17040B17040B170B0B170B0BE2
:10173000170B0B170B0B170B0B170B0B17040B17B8
:10174000040B17040B17040B17040B17040B170BD0
:101750000B170B0B170B0B170B0B170B0B170B0B9D
:1017600017040B17040B17040B17040B17040B17A4
:10177000040B170B0B170B0B170B0B170B0B170B84
:101780000B170B0C17000D17000E17010F17011088
:10179000170011170012170113170114170015175E
:1017A000001617011717011817001917001A17014B
:1017B0001B17011C17001D17001E17011F17012002
:1017C00017002117002217012317012417002517DE
:1017D000002617012717012817002917002A1701CB
:1017E0002B17012C17002D17002E17012F17013072
:1017F000170031170032170133170134170035175E
:10180000003617013717013817003917003A17014A
:101810003B17013C17003D17003E17013F170140E1
:1018200017004117004217014317014417004517DD
:10183000004617014717014817004917004A1701CA
:101840004B17014C17004D17004E17014F17015051
:10185000170051170052170153170154170055175D
:10186000005617015717015817005917005A17014A
:101870005B17015C17005D17005E17015F170160C1
:1018800017006117006217016317016417006517DD
:10189000006617016717016817006917006A1905C4
:1018A0006B1A056C1B066C1B066B1E076B1F076A09
:1018B0002002692002682003672003662002652059
:1018C000026420036320026220026120036020037F
:1018D0005F20025E20025D20035C20035B20025A31
:1018E0002002592003582003572002562002552079
:1018F000035420035320025220025120035020039E
:101900004F20024E20024D20034C20034B20024A60
:101910002002492003482003472002462002452098
:1019200003442003432002422002412003402003BD
:101930003F20023E20023D20033C20033B20023A90
:1019400020023920033820033720023620023520B8
:1019500003342003332002322002312003302003DD
:101960002F20022E20022D20032C20032B20022AC0
:1019700020022920032820032720022620022520D8
:1019800003242003232002222002212003202003FD
:101990001F20021E20021D20031C20031B20021AF0
:1019A00020021920031820031720021620021520F8
:1019B00003142003132208132308122409122409F4
:1019C00013270A13280A142A00152A00162A0117B9
:1019D0002A01182A00192A001A2A001B2A001C2A88
:1019E000011D2A011E2A001F2A00202A01212A0186
:1019F000222A00232A00242A00252A00262A012739
:101A00002A01282A00292A002A2A012B2A012C2A05
:101A1000002D2A002E2A002F2A00302A01312A0107
:101A2000322A00332A00342A01352A01362A0037A7
:101A30002A00382A00392A003A2A013B2A013C2A86
:101A4000003D2A003E2A013F2A01402A00412A0087
:101A5000422A00432A00442A01452A01462A004717
:101A60002A00482A01492A014A2A004B2A004C2A06
:101A7000004D2A004E2A014F2A01502A00512A0007
:101A8000522A01532A01542A00552A00562A005787
:101A90002A00582A01592A015A2A005B2A005C2A86
:101AA000015D2A015E2A005F2A00602A00612A0087
:101AB000622A01632A01642A00652A00662A0167F6
:101AC0002A01682A00692A006A2A006B2A006C2A07
:101AD000016D2A016E2A006F2A00702A01712A0105
:101AE000722A00732A00742A00752A00762A017768
:101AF0002A01782A00792A007A2A017B2A017C2A85
:101B0000007D2A007E2A007F2A0000000B4B02E1A4
:101B10000000001C004B02380000001C002A02E1FB
:101B20000000001C004B02380000001C006E02E1A7
:101B30000000001C009302380000001C00E4025268
:101B4000011003C3010000E1008801A5028801E142
:101B5000000080B8014B00EE014B0000802C000F0C
:101B60000062000F000080AF061C06AD052005B81E
:101B7000014B00EE014B002A024B00100396006E51
:101B800002960000800B58000B56000B54010B52BC
:101B9000010B50020B4E020B4C030B4A030B480483
:101BA0000B46040B44050B42050B40060B3E060B8F
:101BB0003C070B3A070B3800000002171904040415
:101BC000E414080404C262A1A141A1A222C40AF241
:101BD000040408080C1E8FE6F0783C3C3F3479F88A
:101BE000E8F0EBF8E7FEF8F2831D0EFEF0F3EFD815
:101BF000DBB7B5353777767A7D7D3DBBBBDBEBF365
:101C0000FCFC0101010101010101010101010101CE
:101C10000101010101010101011F1F010102020275
:101C20000484040808101010202040408080000028
:101C300000000000000000000000E07884B4F2F52D
:101C4000B6FDFAF8F0E00A1AF2E2C41101C6380053
:101C5000000000000000000000FF7E01151F9F55DE
:101C60005F5F2F272720282FC35384AA51800000AD
:101C700020D0502040800000010000000001000042
:101C80000000000000000001020D112A5B24121563
:101C90000A03050A0A05021E1F00000000000000DA
:101CA0000000000000808040402020101010080834
:101CB0000484040202020200000000000000000090
:101CC0000038C60111C4E2F21A0AE0F0F8FAFDB6D3
:101CD000F5F2B48478000080402050D020000080CD
:101CE00051AA8453C32F282027272F5F5F559F1F9A
:101CF00015017E02050A0A05030A1512245B2A1142
:101D00000D020100000000000000000001000000C2
:101D1000002C1800000080402718408001013BFF84
:101D2000FDFFFBFBF3F3F3FBFBFFFBFBFBF3F3F329
:101D3000FBFBFFFD0F030080304F80000000000020
:101D4000804FB0A0A08080800100008001030307C5
:101D50008F4F2F2F2F5F5F2F2F4F8F0F0F030100FC
:101D600000020180808080215E8000030C0B0B0A42
:101D70000A0B090A0B0B0B0B0B0B0B0403000000E7
:101D800000000000000304090B0A0B0B0B0B0A09EF
:101D9000090B0B0B0B040312080E11151D001E0579
:101DA000051E001F06021F001F15110610639C630D
:101DB0009C639C182758A758270828040A35C23F57
:101DC000C03EC100806699E619A67901028D708F28
:101DD000708F720000619E619E619E000000000194
:101DE0000201004E1007FFFFFFFFFF67F0FFFFFF3C
:101DF0008F070700F0FCFEFEE3D1191951E3FEFE48
:101E0000FCF00007FFFFFFBF7FFEFCF0E7FFFFFFD6
:101E10000700F8FCFEFEFF0F0707C7CEDFDFDF007D
:101E20000000000007FFFFFFFFFF070007FFFFFFA5
:101E3000FFFF073E2F2F2F2F2F3E003F2F2F2F2F3B
:101E40003E00070B17172F2F2828292F17170B07CE
:101E5000003E2F2F2F3E03050B173F2F2F3F000073
:101E6000070B17172F2F2E2E2E2F170B07000000F2
:101E700000003E2F2F2F2F2F3E003E2F2F2F2F2FD2
:101E80003E00006B034A01BC020000A90172015E22
:101E900001000032008801D502000032004A0184AE
:101EA0000300004B00D2018A02D201450100007DEF
:101EB00000EE01B00400800208D4D205087F7F3E06
:101EC0001C084120FE0105F1F1F111D1B1D111F150
:101ED0005151515151515151515151515151000094
:101EE000FF00007F7F09090F06007F7F19396F46C9
:101EF000007F7F4949414100266F49497B320026D6
:101F00006F49497B32FF0000FFFFFFFEFFFEFF022B
:101F100079CD95A5CD790111111101F9F9010100D2
:101F200000FF00007F7F09090F06007F7F404040CF
:101F300040007C7E0B0B7E7C00070F78780F07003B
:101F4000000000000000FF00001F3F3F3333333329
:101F5000333E36363E363E363E36363E36363E36F4
:101F60000000FF00003E7F41417F3E007F7F0E1C4E
:101F70007F7F000000000000000000000000000063
:101F8000000000000000003F4050404040784641C3
:101F900041595941414141595941414141414141D1
:101FA0004100007F000001017F7F0101007C7E0B6A
:101FB0000B7E7C007F7F09090F06007F7F49494126
:101FC0004100000000000000340000340001340033
:101FD00001340001340001340001340001340001F7
:101FE00034000234000234000234000234000234AF
:101FF00000023400023400023400013400013400D5
:1020000001340001340001340001340001340001C6
:10201000340002340002340002340002340002347E
:1020200000023400023400023400013400013400A4
:102030000134000134000134000134000134000196
:10204000340002340002340002340002340002344E
:10205000000234000234000234FD0134FD0134FD7D
:102060000134FB0134FB0134FA0134FA0134FB0181
:1020700034FB0134FD0134FD0134FD013400013431
:102080000201340401340601340801340A01340C1D
:1020900001340E01341001341201341401341601DC
:1020A000341801341A01341C01341E013420013467
:1020B0002201342401342601342801342A01342A2F
:1020C00000342A03352A03362A04372A04382A051D
:1020D000392A053A2A063B2A063C2A033D2A033EB2
:1020E0002A043F2A04402A05412A05422A06432A97
:1020F00006442A03452A03462A04472A04482A0597
:10210000492A054A2A064B2A064C2A034D2A034E21
:102110002A044F2A04502A05512A05522A06522A17
:1021200006532A03542A03552A04562A04572A051B
:10213000582A05592A065A2A065B2A035C2A035D97
:102140002A045E2A045F2A05602A05612A06622A9B
:1021500006632A03642A03652A04662A04672A059B
:10216000682A05692A066A2A066B2A036C2A036D07
:102170002A046E2A046F2A05702A05712A06722A1B
:1021800006732A03742A03752A04762A04772A051B
:10219000782A05792A067A2A067B2A037C2A037D77
:1021A0002A047E2A047F2A05802A05812A06822A9B
:1021B00006822A06822A06822A06822A06822A069F
:1021C000822A06822A06822A06822A06822A068213
:1021D0002A06822A06822A06822A06822A06822A5B
:1021E00006000002A407930782074E072E081D0869
:1021F0000C08D807D20A6A0A020A9A093209CA08E0
:102200006208AA0D420DDA0C720C0A0CA20B3A0BF2
:102210006C41006C41006C41006C41006C41006CF1
:1022200041006C41026C41026C41026C41026C4104
:10223000026C41026C41006C41006C41006C410039
:102240006C41006C41006C41026C41026C41026CBB
:1022500041026C41026C41026C41006C41006C41D6
:10226000006C41006C41006C41006C41026C410209
:102270006C41026C41026C41026C41026B41006A8C
:1022800041016941006841016741006641016541C2
:10229000006441016341006241016141006041010C
:1022A0005F41005E41015D41005C41015B41005ABC
:1022B00041015941005841015741005641015541E2
:1022C000005441015341005241015141005041012C
:1022D0004F41004E41014D41004C41014B41004AEC
:1022E0004101494100484101474100464101454102
:1022F000004441014341004241014141004041014C
:102300003F41003E41013D41003C41013B41003A1B
:102310004101394100384101374100364101354121
:10232000003441013341003241013141003041016B
:102330002F41002E41012D41002C41012B41002A4B
:102340004101294100284101274100264101254141
:10235000002441012341002241012141002041018B
:102360001F41001E41011D41001C41011B41001A7B
:102370004101194100184101174100164101154161
:1023800000144101134100124101114100104101AB
:102390000F41000E41010D41000C41010B41000AAB
:1023A000410109410008410107410207410207417B
:1023B00002074102074102074102074100074100AD
:1023C000074100074100074100074100074102079C
:1023D000410207410207410207410207410207414A
:1023E0000007410007410007410007410007410085
:1023F000000002045200045200045200045200047F
:1024000052000452000452000452000452020452CA
:102410000204520204520204520204520204520202
:1024200004520204520004520004520004520004F8
:10243000520004520004520004520004520204529A
:1024400002045202045202045202045202045202D2
:1024500004520204520004520004520004520004C8
:10246000520004520004520004520004520204526A
:1024700002045202045202045202045202045202A2
:10248000045202055300065401075400085501097F
:1024900055000A55010B56000C56010D57000E57FA
:1024A000010F57001058011158001258011358001D
:1024B00014580115580016580117580018580119DA
:1024C00058001A58011B58001C58011D58001E586E
:1024D000011F58002058012158002258012358009C
:1024E000245801255800265801275800285801294A
:1024F00058002A58012B58002C58012D58002E58EE
:10250000012F58003058013158003258013358001B
:1025100034580135580036580137580038580139B9
:1025200058003A58013B58003C58013D58003E586D
:10253000013F58004058014158004258014358009B
:102540004458014558004658014758004858014929
:1025500058004A58014B58004C58014D58004E58ED
:10256000014F58005058015158005258015358001B
:102570005458015558005658015758005858015999
:1025800058005A58015B58005C58015D58005E586D
:10259000015F58006058016158006258016358009B
:1025A0006458016558006658016758006858016909
:1025B00058006A58016B58006C58016D58006E58ED
:1025C000016F58007058017058027058027058021C
:1025D0007058027058027058027058027058027099
:1025E00058007058007058007058007058007058AB
:1025F00000705800705800705802705802705802ED
:102600007058027058027058027058027058027068
:10261000580070580070580070580070580070587A
:1026200000705800705800000002DC00B400DC00AC
:102630005A00DC005A00DC00B400DC00B4001501D4
:10264000B400DC00B4001501B400DC00B40000806C
:10265000800800008850AC50A054A850A050A85446
:10266000A834B8BCBA7C78FCFAFCFEFEFEFEFEFE86
:10267000FCFAFCFAF4FAFCFAFCFCF8FAFCFCFEF8B2
:10268000F8FCF8F8FCFCFCFEFEFEFEFEFFFFFFFF80
:10269000FFFFFFFFFFFFFFFFFFFFFFFFFFFFFFFF4A
:1026A000FEFEFEFEFEFCFEFCFEFCFAFCFAF4F8F474
:1026B000FAFCFAF8FCFCFAFCFCF8F8FCF8F8F8F480
:1026C000FAF4EAF4F8F4F8FCF8FCF0F8F8F4E0B006
:1026D00000000000000502010A152A55AA55AA505B
:1026E0008003354E7D6F15FAFFFFFFFFFFFFFFFFF1
:1026F000FFFFFFFFFFFFFFFFFFFFFFFFFFFFFFFFEA
:10270000FFFFFFFFFFFFFFFFFFFFFFFFFFFFFFFFD9
:10271000FFFFFFFFFFFFFFFFFFFFFFFFFFFFFFFFC9
:10272000FFFFFFFFFFFFFFFFFFFFFFFFFFFFFFFFB9
:10273000FFFFFFFFFFFFFFFFFFFFFFFFFFFFFFFFA9
:10274000FFFFFFFFFFFFFFFFFFFFFFFF0F0207007D
:102750000100000080408000A854884482418241EA
:1027600082408043824182C1CBCBCBCBC3C3C3C3A6
:10277000D3D3C3DFE3CB3FBF7FFFFFFF7FBF3FCBA1
:10278000E3DFC3C3C3C3DFE3CB3FBF7FFFFFFF7FF5
:10279000BF3FCBE3DFC3C3C3C3DFE3CB3FBF7FFF99
:1027A000FFFF7FBF3FCBE3DFC3C3E3C3DFE3CB3F29
:1027B000BF7FFFFFFF7FBF3FCBE3DFC3C3C3C3C305
:1027C000D3C3C3FFFFFFFFFFCFC382458A50A8409A
:1027D0000000000002012A352A352A150A2DCA1DDB
:1027E0000A3DBA9DFAFDFEFFFFFFFFFFFFFFFFFF5F
:1027F000FFFFFFFFFFFFFFFEFE25DB25FEFEFFFFC5
:10280000FFFFFFFFFFFFFFFFFFFFFEFE25DB25FEB3
:10281000FEFFFFFFFFFFFFFFFFFFFFFFFFFEFE25A5
:10282000DB25FEFEFFFFFFFFFFFFFFFFFFFFFFFFB8
:10283000FEFE25DB25FEFEFFFFFFFFFFFFFFFFFF84
:10284000FFFFFFFFFFFFFFFFFFFFFFFFFEFDEA555A
:10285000A00000000000000080848E9E1A143BBC83
:10286000BFDFFFFFFFFFFFFFFFFFFFFFFFFFFFFFD8
:10287000FFFFFFFFFFFFFFFFFF49B649FFFFFFFF1D
:10288000FFFFFFFFFFFFFFFFFFFFFFFF49B649FF0D
:10289000FFFFFFFFFFFFFFFFFFFFFFFFFFFFFF49FE
:1028A000B649FFFFFFFFFFFFFFFFFFFFFFFFFFFF37
:1028B000FFFF49B649FFFFFFFFFFFFFFFFFFFFFFDD
:1028C000FFFFFFFFFFFFFFFFFFFFFFFFFFFFFFFF18
:1028D0002A0000000000100951A957BF5FBF7FFF09
:1028E000FFFFFFFFFFFFFFFFFFFFFFFFFFFFFFFFF8
:1028F000FFFFFFFFFFFFFFFFFF926D92FFFFFFFF54
:10290000FFFFFFFFFFFFFFFFFFFFFFFF926D92FF43
:10291000FFFFFFFFFFFFFFFFFFFFFFFFFFFFFF9234
:102920006D92FFFFFFFFFFFFFFFFFFFFFFFFFFFFB6
:10293000FFFF926D92FFFFFFFFFFFFFFFFFFFFFF13
:10294000FFFFFFFFFFFFFFFF7FAF57AF172B050311
:102950000000000050A855AA55AA55AA55BAD7FF9D
:10296000FFFFFFFFFFFFFFFFFFFFFFFFFFFFFFFF77
:10297000FFFFFFFFFFFFFFFFFFFFFFFFFFFFFFFF67
:10298000FFFFFFFFFFFFFFFFFFFFFFFFFFFFFFFF57
:10299000FFFFFFFFFFFFFFFFFFFFFFFFFFFFFFFF47
:1029A000FFFFFFFFFFFFFFFFFFFFFFFFFFFFFFFF37
:1029B000FFFFFFFFFFFFFFFFFFFBF3F5F1FBE3DB93
:1029C000A54393EBF5E3E5EAD1E2D1E040A01000A6
:1029D00000000000552A150A054E0F17170F17178C
:1029E000134D23FB07EFFFFFFFFFFF8F6FB70F179D
:1029F0000B0B170F170F0F0F0F0F4F2F0F0F0F0F7F
:102A00000F0F0F0F2F0F0F0F0F0F0F2F4F0F0F0F56
:102A10000F0F0F0F0F0F4F0F0F0F2F0F0F0F0F0F66
:102A20000F0F0F4F2F0F0F0F0F0F0F0F2F0F0F0F36
:102A30000F0F0F0F2F4F0F0F0F0F0F0F0F0F0F4F06
:102A40000F0F0F0F0F0F2F0F0F0F0F0F0F4B950AB9
:102A500010000000000080800000ECEEEEEEEEEED4
:102A6000EEEE9C639C63FFFFFFFFFF738C738C5E35
:102A7000AEAE4EAEEEEEDEEEF6EEDEEEEEEEEEEEEE
:102A8000EEEEEEEEEEEEEEF6EEDEEEF6EEDEEEEE76
:102A9000EEEEEEEEEEEEEEEEEEEEEEF6EEDEEEF656
:102AA000EEDEEEEEEEEEEEEEEEEEEEEEEEF6EEDE5E
:102AB000EEF6EEDEEEEEEEEEEEEEEEEEEEF6EEDE46
:102AC000EEF6EEDEDE86968696CE060606860604D0
:102AD00004000000000A849000401FFFFFFFFFFF7A
:102AE000FFFFE7D8A7D8FFFFFFFFFFFEFDFAFDFFBE
:102AF000FEFEFFFFFFFFFFFFFFFFFFFFFFFFFFFFE8
:102B0000FFFFFFFFFFFFFFFFFFFFFFFFFFFFFFFFD5
:102B1000FFFFFFFFFFFFFFFFFFFFFFFFFFFFFFFFC5
:102B2000FFFFFFFFFFFFFFFFFFFFFFFFFFFFFFFFB5
:102B3000FF7F7FBF5F5FBF7F7F7F7F7F3F5F3FDF25
:102B40003F7FBF7F7F7F7F7F7F7F000051244E1EAE
:102B50000000000000708FFAF088B07A7FFFFFFF5E
:102B6000FFFFFFFFFFFFFFFFFFFFFFFFFFFFFFFF75
:102B7000FFFFFFFFFFFFFFFFFFFFFFFFFFFFFFFF65
:102B8000FFFFFFFFFFFFFFFFFFFFFFFFFFFFFFFF55
:102B9000FFFFFFFFFFFFFFFFFFFFFFFFFFFFFFFF45
:102BA000FFFFFFFFFFFFFFFFFFFFFFFFFFFFFFFD37
:102BB000FAC43AC43AFCFEFDFAFCFEFEFCFAFCF94B
:102BC000FAF4EAF5F2F4F0F8F8F0101090509010E2
:102BD00010000000001048A547A7C7E7C7DEDEDEEB
:102BE000EDFDFBFBFBF7F7F7F7F7F7F7F7F7FBF769
:102BF000EFF7FBF7F7F7F7F7F7F7F7F7F7F7F7F769
:102C0000F7F7FBF7EFF7FBF7F7F7F7F7F7F7F7F754
:102C1000F7F7F7F7F7FBF7EFF7FBF7F7F7F7F7F744
:102C2000F7F7F7F7F7F7FBF7EFB7E7F38D7585756C
:102C3000F5F3F7F6F7F7837D05FB05C5BB47474777
:102C400047A7B3C5F3F7FBF7F7C36642424BD2423F
:102C50004242000000000000000241ABD5EBF7FF4C
:102C6000FFFFFFFFFFFFFFFFFFFFFFFFFFFFFFFF74
:102C7000FFFFFFFFFFFFFFFFFFFFFFFFFFFFFFFF64
:102C8000FFFFFFFFFFFFFFFFFFFFFFFFFFFFFFFF54
:102C9000FFFFFFFFFFFFFFFFFFFFFFFFFFFFFFFF44
:102CA000FFFFFFFFFFFFFFFFFFFFFFFFF1EED1EE92
:102CB000FFFFFFFFFFFFFFF8F7F8EFF7EBD7AB578A
:102CC0008F178F0F0F0F0F0F0F0F00000001000065
:102CD000080000000000008050AA75FF7FBF7FFF42
:102CE0007FFFFFFFFFFFFFFFFFFFFFFFFFFFFFFF74
:102CF000FFFFFFFFFFFFFFFFFFFFFFFFFFFFFFFFE4
:102D0000FFFFFFFFFFFFFFFFFFFFFFFFFFFFFFFFD3
:102D1000FFFFFFFFFFFFFFFFFFFFFFFFFFFFFFFFC3
:102D2000FFFFFFFFFFFFFFFFFFFFFFFFFFFFFFFFB3
:102D3000FFFFFFFFFFFFFFFFFFFFFFFFFFFFFFFFA3
:102D4000FEFFFEFDFEFDFEFCF878B04080000000B6
:102D5000000000000001010081408140A15061009D
:102D6000F10CF6FAF9EAD615D12ED2A1C1E1E1E1D2
:102D7000E1E1E1E1E1E2E5EAD5EAD5EAD5E9D1E14F
:102D8000E1E1E1E1E1E1E1E1E5D2D5EAD5EAD5EA47
:102D9000D5EAD5E1D1E1C1E1E1E1E1E1E1E1E2E55D
:102DA000E2D5EAD5E9D1E1D1E1E1E1E1E1E2E5E233
:102DB000E5EAF5EAF5E9D5E9D1E1E1E1E1E1E1E1D1
:102DC000E1E1E1E1E1E1E1E1E0E1C0A14080008099
:102DD000000000000000FCFEFFFFFFFFFEFEFEF80B
:102DE000D7F8FFFFFFFFFFF0EFF0FFFFFFFFFFFF50
:102DF000FFFFFFFFFFFFFFFFFFFFFFFFFFFFFFFFE3
:102E0000FFFFFFFFFFFFFFFFFFFFFFFFFFFFFFFFD2
:102E1000FFFFFFFFFFFFFFFFFFFFFFFFFFFFFFFFC2
:102E2000FFFFFFFFFFFFFFFFFFFFFFFFFFFFFFFFB2
:102E3000FFFFFFFFFFFFFFFFFFFFFFFFFFFFFFFFA2
:102E4000FFFFFFFFFFFFFFFFFFFFFFFFFFFEFDFA9A
:102E5000F40010033200930232000B0232007003C0
:102E600032005D01320026013200EE0132000080A6
:102E70000607364141414136000000360000304926
:102E800049494906004949494936060808080836AB
:102E9000064949494930364949494930000101014B
:102EA00001363649494949360649494949360B0BE5
:102EB000FC02FD8DD5D58DFD0204F800010204044D
:102EC000040404040201FC02FD8595A59DFD020495
:102ED000F800010204040404040402010B0BFCFECC
:102EE000FFFFFFFFFFFFFEFCF800010307070707D6
:102EF00007070301120C102854B4484C9235DDD159
:102F0000CA820262ADAA14080000040A0105000882
:102F1000040505040408080A0502120C10387CFC9C
:102F2000F8FCFEFFFFFFFEFEFEFEBFBE1C08000019
:102F3000040E0F0F0F0F07070707070F0F0F0702EA
:102F40000C0C00001C22D11951A21C000000000032
:102F500000000F08090E00000000007C821262349D
:102F6000087020C0408000000001010103060D0828
:102F70000603E0100848E810A090A09090F000012F
:102F80000202020100000000000000C02050D04CEE
:102F90000AE6311B0E0000010204040402010000D5
:102FA00000000000008057A981BF408000000000A1
:102FB0000003040809080403000008141A22F40896
:102FC00048D05020C00000000000010204040402A8
:102FD0000100F09090509050887424048870000094
:102FE00000000000000101010000000080403C8260
:102FF000895D41221C00000102040B060100000053
:1030000000000C0C00001C3EFFFFFFBE1C00000077
:10301000000000000F0F0F0E00000000007CFEFEFD
:10302000FEFCF8F0E0C0C0800000000101010307D1
:103030000F0F0703E0F0F8F8F8F0E0F0E0F0F0F040
:1030400000010303030100000000000000C0E0F0E5
:10305000F0FCFEFE3F1F0E000001030707070301FF
:103060000000000000000080D7FFFFFFC0800000CC
:1030700000000003070F0F0F07030000081C1E3E8F
:10308000FCF8F8F0F0E0C0000000000001030707C2
:1030900007030100F0F0F070F070F8FCFCFCF87031
:1030A000000000000000000101010000000080C0DD
:1030B000FCFEFF7F7F3E1C00000103070F0701009D
:1030C00000000000090E3074C6A333A3C67C38008C
:1030D000003F3F30323F3D000074F6833383FE7C77
:1030E0000000003F3F303F3F00003074C6A333A3D1
:1030F000C67C38003D3F32303F3F00000074F6830D
:103100003383FE7C0000003F3F303F3F0000090E4C
:10311000387CFEFFFFFFFE7C3800003F3F3F3F3F13
:103120003D00007CFEFFFFFFFE7C0000003F3F3FB4
:103130003F3F0000387CFEFFFFFFFE7C38003D3F34
:103140003F3F3F3F0000007CFEFFFFFFFE7C000092
:10315000003F3F3F3F3F00000B744000010B7340B6
:103160000A030B72400A030B71400A030B70400BF9
:10317000030B6F400B030B6E400A030B6D400A03F9
:103180000B6C400B030B6B400B030B6A400A030BE9
:1031900069400A030B68400B030B67400B030B6687
:1031A000400A030B65400A1A0C6440001C0D654080
:1031B000001C0E6540001C0F6540001C106540009F
:1031C0001C116540001C126540001C136540001C6A
:1031D000146540001C156540001C166540001C1756
:1031E0006540001C186540001C196540001C1A65EC
:1031F00040001C1B6540001C1C6540001C1D6540F8
:10320000001C1E6540001C1F6540001C206540001E
:103210001C216540001C226540001C236540001CE9
:10322000246540001C256540001C266540001C27C5
:103230006540001C286540001C296540001C2A656B
:1032400040001C2B6540001C2C6540001C2D654077
:10325000001C2E6540001C2F6540001C306540009E
:103260001C316540001C326540001C336540001C69
:10327000346540001C356540001C366540001C3735
:103280006540001C386540001C396540001C3A65EB
:1032900040001C3B6540001C3C6540001C3D6540F7
:1032A000001C3E6540001C3F6540001C406540001E
:1032B0001C416540001C426540001C436540001CE9
:1032C000446540001C456540001C466540001C47A5
:1032D0006540001C486540001C496540001C4A656B
:1032E00040001C4B6540001C4C6540001C4D654077
:1032F000001C4E6540001C4F6540001C506540009E
:103300001C516540001C526540001C536540001C68
:10331000546540001C556540008C566540008C5734
:103320006540008C586540008C59654000845964A4
:10333000400D005963400D005962400D0059614035
:103340000D005960400D00595F400D00595E3E0B65
:1033500003595D3D0B03595C3C0A03595B3B0A036F
:10336000595A3A0A035959390A035958380A03591C
:1033700057370A035956360B035955350B03595421
:10338000340B035953330B035952330B0359513147
:10339000003E575030003E56502F003E55502E00F4
:1033A0003E54502D003E53502D003C52502D003CB9
:1033B00051502D003C50502D003C4F502D003C4EA4
:1033C000502D003C4D502D003C4C502D003C4B509E
:1033D0002D003C4A502D003C49502D003C48502DBA
:1033E000003C47502D003C46502D003C45502D00E0
:1033F0003C44502D003C43502D003C42502D003C9D
:1034000041502D003C40502D003C3F502D003C3E93
:10341000502D003C3D502D003C3C502D003C3B507D
:103420002D003C3A502D003C39502D003C38502D99
:10343000003C37502D003C36502D003C35502D00BF
:103440003C34502D003C33502D003C32502D003C7C
:1034500031502D003C30502D003C2F502D003C2E83
:10346000502D003C2D502D003C2C502D003C2B505D
:103470002D003C2A502D003C29502D003C28502D79
:10348000003C27502D003C26502D003C25502D009F
:103490003C24502D003C23502D003C22502D003C5C
:1034A00021502D003C20502D003C1F502D003C1E73
:1034B000502D003C1D502D003C1C502D003C1B503D
:1034C0002D003C1A502D003C19502D003C18502D59
:1034D000003C17502D003C16502D003C15502D007F
:1034E0003C14502D003C13502D00AC12502D00AC5C
:1034F00011502D00AC10502D00AC0F502D00A80F16
:10350000502D0E200F4F2D0E200F4E2D0E200F4D43
:103510002D0E200F4C2D0E200F4B2D0E200F4A2D5F
:103520000E200F492D0E200F482D0A030F472D0A9C
:10353000030F462D0A030F452D0A030F442B0B03DF
:103540000F43290B030F42270B030F41250B030FDA
:1035500040230A030F3F210A030F3E1F0A030F3DBA
:103560001D0A030F3C1B0B030F3B190B030F3A17EC
:103570000B030F39150B030F38130A030F37100A0B
:10358000030F360D0A030F350A0A030F34070B0326
:103590000F33040B0F0F32020B0F0F33000B0F0F03
:1035A00031000A0F0F30000A0B0F3000001A1030E4
:1035B00000001E113000001E123000001E133000EB
:1035C000001E143000001C153000001C16300000D6
:1035D0001C173000001C183000008C193000008CC3
:1035E0001A3000008C1B3000008C1C3000008C1D39
:1035F0003000008C1E3000008C1F3000008C20300A
:1036000000008C213000008C223000008C23300020
:10361000008C243000008C253000001C2630000077
:103620001C273000001C283000001C293000001C22
:103630002A3000001C2B3000001C2C3000008C2D88
:103640003000008C2E3000008C2F3000008C303089
:1036500000008C313000008C323000008C333000A0
:10366000008C343000008C353000008C3630000087
:103670008C373000008C383000008C393000001C52
:103680003A3000001C3B3000001C3C3000001C3D68
:103690003000001C3E3000001C3F3000001C403059
:1036A00000008C413000008C423000008C43300020
:1036B000008C443000008C453000008C4630000007
:1036C0008C473000008C483000008C493000008C62
:1036D0004A3000008C4B3000008C4C3000008C4D88
:1036E0003000001C4E3000001C4F3000001C5030D9
:1036F00000001C513000001C523000001C533000F0
:10370000001C543000001C553000008C5630000066
:103710008C573000008C583000008C5930000084E9
:1037200000000000001E30000D001E2F000D001EC6
:103730002E000D001E2D000D001E2C000D001E2B56
:10374000000D001E2A000D001E29000D001E28007D
:103750000D001E270006031E260006031E25000678
:10376000031E240007031E230007031E2200060376
:103770001E210006031E200007031E1F0007031E54
:103780001E0006031E1D0006031E1C0007031E1B51
:103790000007031E1A0006031E190006031E180068
:1037A00007031E170007031E160006031E1500065A
:1037B000031E140006023230000D00322F000D00EF
:1037C000322E000D00322D000D00322C000D003283
:1037D0002B000D00322A000D003229000D00322886
:1037E000000D0032270007033226000703322500B0
:1037F00007033224000703322300070332220006A6
:103800000332210006033220000703321F000703A2
:10381000321E000603321D000603321C000703326D
:103820001B000703321A0006033219000603321880
:103830000007033217000703321600060332150093
:10384000060332140006024630000E00462F000E1A
:1038500000462E000E00462D000E00462C000E00E5
:10386000462B000E00462A000E004629000E004698
:1038700028000E00462700090346260009034625B6
:1038800000080346240009034623000903462200DA
:10389000080346210008034620000903461F0009CB
:1038A00003461E000803461D000803461C000903CA
:1038B000461B000903461A00080346190008034680
:1038C00018000903461700090346160008034615A9
:1038D00000080346140008025A30000E005A2F0058
:1038E0000E005A2E000E005A2D000E005A2C000E0B
:1038F000005A2B000E005A2A000E005A29000E0012
:103900005A28000E005A270009035A260009035AB4
:10391000250008035A240009035A230009035A22E8
:103920000008035A210008035A200009035A1F0007
:1039300009035A1E0008035A1D0008035A1C0009F7
:10394000035A1B0009035A1A0008035A19000803F6
:103950005A180009035A170009035A160008035A97
:10396000150008035A140008021F300000001F3021
:103970000000001F300000001F300000001F30005A
:1039800000001F300000001F300000001F3000004A
:10399000001F300000001F300000001F300000003A
:1039A0001F300000001F300000001F300000001F0B
:1039B000300000001F300000001F300000001F30EA
:1039C0000000001F300000001F3000000020300009
:1039D00000002130000000223000000023300000F1
:1039E00000243000000025300000002630000000D8
:1039F0002730000000283000000029300000002A95
:103A0000300000002B300000002C300000002D3072
:103A10000000002E300000002F3000000030300089
:103A20000000313000000032300000003330000070
:103A30000034300000003530000000363000000057
:103A40003730000000383000000039300000003A04
:103A5000300000003B300000003C300000003D30F2
:103A60000000003E300000003F3000000040300009
:103A700000004130000000423000000043300000F0
:103A800000443000000045300000004630000000D7
:103A90004730000000483000000049300000004A74
:103AA000300000004B300000004C300000004D3072
:103AB0000000004E300000004F3000000050300089
:103AC0000000513000000052300000005330000070
:103AD0000054300000005530000000563000000057
:103AE0005730000000583000000059300000005AE4
:103AF000300000005B300000005C300000005D30F2
:103B00000000005E300000005F3000000060300008
:103B100000006130000000623000000063300000EF
:103B200000643000000065300000006630000000D6
:103B30006730000000683000000069300000006A53
:103B4000300000006B300000006C300000006D3071
:103B50000000006E300000006F3000000070300088
:103B6000000071300000007230000000733000006F
:103B70000074300000007530000000763000000056
:103B80007730000000783000000079300000007AC3
:103B9000300000007B300000007C300000007D30F1
:103BA0000000007E300000007F3000000080300008
:103BB00000008030000000803000000080300000F5
:103BC00000803000000080300000008030000000E5
:103BD0008030000000803000000080300000008055
:103BE0003000000080300000008030000000803095
:103BF00000000080300000008030000000803000B5
:103C000000008030000000803000000080300000A4
:103C10000080300000008030000000803000000094
:103C20008030000000803000000080300000000084
:103C3000000000005D2811241FBECFEFDAE0DEBFD8
:103C4000CDBF11E0A0E0B1E0EEE3FFE602C00590D9
:103C50000D92A832B107D9F725E0A8E2B1E001C082
:103C60001D92A73FB207E1F71EE1CBE1DEE104C000
:103C70002197FE010E949037CA31D107C9F70E94EF
:103C80003E290C949D370C9400006F927F928F9286
:103C90009F92AF92BF92CF92DF92EF92FF920F93DB
:103CA0001F93CF93DF936C01DB0148017E2D4115FB
:103CB000510509F49DC0FA016491319684914E5FDB
:103CC0005F4FC62FD0E0222301F1E1E0F0E0982F12
:103CD000977011F4F0E0E0E0082F06950695069540
:103CE0000E0F1F2F111D0C9FF0010D9FF00D1C9F3B
:103CF000F00D1124733011F4EE0FFF1F2E9F800181
:103D00002F9F100D1124400F511F86010C0F1D1FF6
:103D1000101611060CF06CC0F0E8CF16D1040CF0B0
:103D200067C09D01280F311D121613060CF060C0EC
:103D3000A034B1050CF05CC04115510509F458C020
:103D40003A2F3770FD01B7FD379693E0F595E7956B
:103D50009A95E1F72E2FB7FF04C0332311F02FEF10
:103D60002E0FEE27FF27EC19FD09D7FC02C0F0E06B
:103D7000E0E090E89C19003811050CF4962F9E1B8A
:103D8000A22F022E000CBB0B1A2F10952F3F0CF008
:103D900010E0BB24B394082F077009F4B12C86956A
:103DA00086958695B80EAB0DB11D19971CF0A8E04D
:103DB000BA2EB21AB11A210F00E82003D001112443
:103DC000AC0DBD1DAE0FBF1F619FE00DF11D112495
:103DD0004E0F5F1FC32E032E000CDD08733009F455
:103DE00018C1A8F4713009F4CAC0723009F478C05F
:103DF000DF91CF911F910F91FF90EF90DF90CF90C7
:103E0000BF90AF909F908F907F906F9008957A3F72
:103E1000B1F10B2D020F7B3F59F7201749F3BD017C
:103E200069507E4FF12CE12CE91608F0A2C0FA018E
:103E3000EE0DFF1DE491F0E04F010C2C02C0880C48
:103E4000991C0A94E2F727FD06C0FB018081182D1A
:103E5000109581238083332361F0273054F45B0174
:103E6000F0E8AF0EB11C192D1095F501808181236A
:103E70008083FFEFEF1AFF0A6F5F7F4FD5CF0B2DC7
:103E8000020F201709F4B4CFBD0169507E4FF12C09
:103E9000E12CE91608F067C0FA01EE0DFF1DE49170
:103EA000F0E04F010C2C02C0880C991C0A94E2F738
:103EB00027FD04C0FB01808188298083332351F0D2
:103EC000273044F45B01F0E8AF0EB11CF5018081AE
:103ED00089298083FFEFEF1AFF0A6F5F7F4FD9CFE9
:103EE0006FEF70E0032E02C0660F771F0A94E2F7AF
:103EF00060957095972E8B2C820E281509F478CF3B
:103F00008D0109501E4FF12CE12CE91630F5FA0114
:103F1000EE0DFF1DE491F0E03F010C2C02C0660C99
:103F2000771C0A94E2F727FD05C0F80180818623FB
:103F300086298083332359F027304CF45801F0E868
:103F4000AF0EB11CF5018081892187298083FFEFA5
:103F5000EF1AFF0A0F5F1F4FD8CF2F5F4C0F5D1F67
:103F6000A058BF4FCACF2F5F4C0F5D1FA058BF4F47
:103F700088CF2F5F4C0F5D1FA058BF4F4ECF8401DD
:103F80000E0F1F1F8B2D820F281709F431CFBD0193
:103F900069507E4FF12CE12CE91698F5F801EE0DF1
:103FA000FF1DA490B12C0C2C02C0AA0CBB1C0A94BF
:103FB000E2F7A094B094FA01EE0DFF1D8490912CCD
:103FC0000C2C02C0880C991C0A94E2F727FD08C04B
:103FD000FB017080E72DEA217E2E7828FB0170829C
:103FE000332349F027303CF4FB01E058FF4FA08019
:103FF000BA20B928B082FFEFEF1AFF0A6F5F7F4F38
:10400000CBCF2F5F4C0F5D1F0C0F1D1FA058BF4F54
:10401000BBCFE92EF12CE40FF51FA950BE4F60E88D
:1040200070E06E197F09CE19DF09AE01440F551FEC
:10403000C1E0D0E07E01032E01C0EE0C0A94EAF745
:10404000192F0B2D892E932ECF93DF93ED01EF9631
:10405000EF962296A590C590992059F0AE9C5001FC
:10406000CE9C600127302CF4F880D094FD20FB28F2
:10407000F99222233AF0FC90C094FC20FA28FD9299
:104080000C94432011961A9529F70A9551F0182D92
:1040900023951124E40FF11DA60FB11DC60FD11DEC
:1040A000D9CFDF91CF911124A3CEE7EFF1E081E0EA
:1040B000A0E0B8E000800EBC8111012C1197A0FD9A
:1040C000FDCF0192B9F70DB4089525E0AC01249F0E
:1040D000C001259F900D1124FC01E85AFE4C54911B
:1040E000FC01E75AFE4C4491FC01E65AFE4C349127
:1040F000FC01E55AFE4C2491845A9E4CFC018491AB
:10410000A1E5B1E057965C93579758964C93589712
:1041100059963C9359975A962C935A975B968C9341
:104120000895382F80915F0181114EC090916B01ED
:104130009D3091F09E3009F453C0911143C02091FD
:1041400068019091610129130BC081E09091640195
:10415000943019F480E001C082E0809363010895F7
:104160009217BCF4332329F0809162018F5F809312
:10417000620188E08093640180916201803111F4D2
:1041800010926201809162018695869586958C5F7A
:10419000E4CF291714F7332329F0809162018F5F50
:1041A0008093620184E08093640180916201803198
:1041B00011F4109262018091620186958695869530
:1041C0008E5FCBCF892FC9CF90916801809161011B
:1041D0009813C0CF80916401843021F483E0BDCF77
:1041E00084E0BBCF85E0B9CF8091E001882361F006
:1041F00081508093E001811107C01092DE0110927E
:10420000E3011092DF0108958091DD018823D9F345
:104210008091DF0191E0980F9093DF012091E101FF
:104220003091E20143E0949FC0011124F901E80FAD
:10423000F91F4491FC013196E20FF31FE491411103
:10424000E2CFE111E0CF4091E301442329F0413076
:1042500039F01092DD01D5CF81E08093E301F9CFF1
:104260000296820F931FFC018491F7CF8091770112
:10427000811102C080E008958150809377018111FF
:10428000F9CFE1E5F1E0948D911101C08F5F90A12C
:10429000992319F0148E10A28F5F319691E0E535C5
:1042A000F90789F7843031F781E08093760108952A
:1042B000E1E5F1E08789808B848595850196958776
:1042C00084870C946520CF93C82F809168018093D8
:1042D000610180915D0190915E01019790935E0173
:1042E00080935D010E94652080916B018D5082302A
:1042F00008F04AC081E08093660180915D01909151
:104300005E01893221E0920721F188F48D35910513
:1043100051F18A3B910539F180916601811136C0D6
:1043200080915D0190915E01CF910C946520833660
:1043300021E09207D9F0803821E09207F1F086342D
:10434000914051F780E091E0CC2349F083EC91E07B
:1043500006C08CEE90E0CC2311F08EE991E09093B2
:104360005E0180935D0110926601D6CF84E191E0F9
:10437000CC23A9F387ED91E0F2CF87E291E0CC2343
:1043800071F38BEE91E0EBCF10926601CF9108951F
:10439000882321F0809168018093610180916B01F5
:1043A0008730C1F058F4863089F080915D0190919A
:1043B0005E010E946520809168010895883071F047
:1043C000893099F780916801835008958091680140
:1043D000895F0895809168018A5F089580916801DE
:1043E000825008953FB7F89480914D0190914E010D
:1043F000A0914F01B091500126B5A89B05C02F3F59
:1044000019F00196A11DB11D3FBFBA2FA92F982FFA
:104410008827BC01CD01620F711D811D911D42E0F5
:10442000660F771F881F991F4A95D1F708958F92BD
:104430009F92AF92BF92CF92DF92EF92FF926B0169
:104440007C010E94F2214B015C01C114D104E10402
:10445000F104B9F00E94F221681979098A099B09CF
:10446000683E73408105910580F321E0C21AD108AE
:10447000E108F10888EE880E83E0981EA11CB11CAB
:10448000E4CFFF90EF90DF90CF90BF90AF909F90E0
:104490008F900895EF920F931F933AEFE32E10E061
:1044A00000E00E94451E1F910F91EF900895EF923A
:1044B0000F931F933BEFE32E10E000E00E94451E98
:1044C0001F910F91EF900895EF920F931F9332E099
:1044D000E32E10E000E00E94451E1F910F91EF9027
:1044E0000895F89487E78093000880930108A895C1
:1044F00088E18093600088E080936000FFCFBC017A
:1045000090E080E00C9417228FB18095807F669BAD
:1045100088601C9B846008958091470108950895E8
:10452000CF93DF9300D000D000D0CDB7DEB7FC0131
:1045300023813481A18153E0A59FD0011124F90189
:10454000EA0FFB1F8491FD013196E20FF31F2491C6
:10455000082E000C990BE22FE61B2E2F30E04111A4
:104560001BC003969A8389832E5F3F4F3C832B8326
:1045700082E08D835E8329813A814B815C816D81EC
:104580007E8180E090E026960FB6F894DEBF0FBEE5
:10459000CDBFDF91CF91089502969A8389832F5FD3
:1045A0003F4F3C832B8384E08D8385E08E83E3CF74
:1045B000FC01718360831282CB010C94652070E052
:1045C00060E08DE591E00E94D822E1E5F1E01686F9
:1045D000148A158A8FEF808B88E0838B08959C0165
:1045E000205F3F4FFC0180E890E02E173F0731F03D
:1045F00010829283818363833496F7CF089520914C
:10460000F601E091F401F091F501CF01029690934B
:10461000F5018093F401222319F085919491089576
:10462000808191810895CF92DF92EF92FF92CF9394
:104630000E94FF22811520E89207A1F48091710069
:104640008D7F8093710082E08093910081E0809360
:104650009000469810924101CF91FF90EF90DF902B
:10466000CF90089521E020934101813020E8920706
:1046700051F48091E4019091E5019093F5018093CC
:10468000F4010E94FF229F77009709F070C081E03B
:104690008093420146988AEF90E09C0150E040E010
:1046A00060E079E08DE390E00E94F93669017A01DB
:1046B00081E0C81AD108E108F108C1E0C114D104B1
:1046C00021E0E206F10454F0CD2CDE2CEF2CFF2487
:1046D00081E0C81AD108E108F108C4E0E0913F0187
:1046E000F09140010995811103C081E0809342015E
:1046F0000E94FF229C018FEF9FEFDC012115310505
:1047000079F04FB7F8948091490190914A01A091B6
:104710004B01B0914C014FBF820F931FA11DB11DE2
:104720008093430190934401A0934501B0934601C7
:10473000D0929700C092960080919400909195003D
:10474000B0E0A0E0C816D906EA06FB0620F4D09235
:104750009500C0929400C061C093910080E1809365
:1047600090008091710082608093710075CF1092EB
:10477000420193CF9C01E1E7F0E090819D7F90831F
:104780001092F601E6EEF1E0F093F501E093F4010A
:10479000F093E501E093E401318320838DE290E022
:1047A0009383828380E090E8958384830C94132321
:1047B0009C01E1E7F0E090819D7F908381E0809310
:1047C000F6013093F5012093F4013093E501209335
:1047D000E4010C941323EF92FF921F93CF93DF9386
:1047E0001091DF01111114C09091E301963008F08F
:1047F00075C0E92FF0E0EE5DFE4F4081913009F485
:104800004AC008F445C0963008F447C0C0E04BC029
:104810006091E1017091E20193E0199F90011124F0
:10482000FB01E20FF31F4491F9013196E60FF71FE8
:10483000C491C81B2E5F3F4F260F371FF9011491FB
:104840001F3F89F580913701909138016BE370E04B
:104850000E9468376FE070E00E946837162F0C2EB8
:10486000000CDD0BE42E440FFF08262F4EE051E331
:10487000BE01C7010E945722212F44EC50E3BE0124
:10488000C701DF91CF911F91FF90EF900C944A22C6
:10489000CAE5C81BD7CFC3E2FCCFCCE0C81B92301F
:1048A00088F29630C8F08091DE01882321F0809153
:1048B000E00184FF15C00C2E000CDD0BE42E440F2C
:1048C000FF08212F42E050E3BE01C7010E9457229A
:1048D000212F40E45FE2D3CF14E0E5CF40E096CF54
:1048E000DF91CF911F91FF90EF900895CF92DF92CB
:1048F000EF92FF920F931F93CF93DF9300D000D0DE
:10490000CDB7DEB7C82ED12C06E710E00C191D0973
:1049100080913001833080F020E04AE15FE2B8010D
:104920008BE190E00E94572220E044EF5EE2B80164
:104930008BE190E00E944A2280913001823080F029
:1049400020E04AE15FE2B8018CE290E00E94572249
:1049500020E044EF5EE2B8018CE290E00E944A223F
:1049600019821A821B821C8280912E0190912F0144
:10497000FE0131967E0125E0E20EF11C2AE030E0D6
:10498000B9010E9468378193CB01EE15FF05C1F78D
:1049900020E04CED5EE2B80181E590E00E945722F4
:1049A00021E080913201813009F020E04EEA5EE2A0
:1049B000B80181E590E00E944A2287018EE5E82E49
:1049C000F12C88E790E0FC01EC19FD096F01F8017A
:1049D00022918F0140E75EE2B601C7010E94572293
:1049E000F7E0EF0EF11C2AE7E216F10481F70F90D1
:1049F0000F900F900F90DF91CF911F910F91FF902B
:104A0000EF90DF90CF90089582E59EE20E94D82338
:104A1000E1E5F1E081E0848B148288E780831092E5
:104A2000E30108951F93CF93DF93C82FD0E0D19572
:104A3000C195D10910E0212F40E556E2BE0190E07A
:104A400080E00E944A221F5F28961031A1F7DF9173
:104A5000CF911F9108956F927F928F929F92AF9204
:104A6000BF92CF92DF92EF92FF920F931F93CF935B
:104A7000DF93CDB7DEB728970FB6F894DEBF0FBE31
:104A8000CDBF682E80917601882309F4A2C02091C1
:104A9000780183E0289F90011124F901E853F04E3A
:104AA000C490F901E753F04E649166192653304ED5
:104AB000F9012491022F10E0000F111FF801EE5FA1
:104AC000FD4D45915491E62E660FFF080C2C000C0D
:104AD000DD0820E0B701C6010E945722F801EC5022
:104AE000FE4D4591549120E0B701C6010E944A2233
:104AF0008091070190910801A0910901B0910A01EC
:104B000089839A83AB83BC8380910B0190910C01C4
:104B1000A0910D01B0910E018D839E83AF83B88764
:104B20003DE6832E31E0932EF12CE12C712CF40123
:104B300081914F01882381F18381882321F0809125
:104B4000770184FF29C08701000F111FF801E4518C
:104B5000FE4D45915491E5E0F0E0EC0FFD1FEE0DA8
:104B6000FF1DC080D12CC618D708E1E0F0E0EC0FA3
:104B7000FD1FEE0DFF1DA080B12C20E0B601C50188
:104B80000E945722F801EC51FE4D4591549120E0CE
:104B9000B601C5010E944A22FFEFEF1AFF0A84E026
:104BA000E816F10409F0C3CF28960FB6F894DEBFDB
:104BB0000FBECDBFDF91CF911F910F91FF90EF906E
:104BC000DF90CF90BF90AF909F908F907F906F902D
:104BD000089561E0661984E3C82E20E06BCF8F92C0
:104BE0009F92AF92BF92CF92DF92EF92FF924B01D2
:104BF0005C0182169306A406B5069CF469017A014D
:104C0000C818D908EA08FB0841F00E945D36A701E0
:104C100096010E94F9366B017C018C0C9D1CAE1C28
:104C2000BF1CC501B401FF90EF90DF90CF90BF9003
:104C3000AF909F908F9008951F93CF93DF93EC01D7
:104C4000162F262F269530E050E040E060E070E01F
:104C5000CB010E94EF256C8B1D8BDF91CF911F91B3
:104C600008951F93CF93DF93EC01162F262F2695DF
:104C700030E050E040E060E070E0CB010E94EF25C2
:104C8000688B198BDF91CF911F9108950F931F931C
:104C9000CF93DF93BC01EC016496DC0103E0AC1719
:104CA000BD0731F12C91222309F111962C91119716
:104CB00031E0320F11963C93119713964D915C9110
:104CC0001497309F90011124FA01E20FF31F149101
:104CD0002F5F3F4F240F351FF9012491111106C09A
:104CE000211104C01C9211961C9211971596D7CFD2
:104CF000FC012489222339F02150248BDF91CF91AC
:104D00001F910F910895FB01A617B707B9F36B5FC9
:104D10007F4FEB01259728812111F5CFEC0181E030
:104D2000808311826D89262F30E050E040E0669547
:104D300070E090E080E00E94EF256C8BDFCFCF9396
:104D4000DF93EC01BC01605F7F4F9C01FC016E179B
:104D50007F07A9F04081442381F041815281483F7F
:104D60008FEF580724F0415051095283418341810C
:104D70005281473F5F4F09F410823496E8CF48894B
:104D8000442329F04150488BDF91CF910895F901D8
:104D900026173707C9F32C5F3F4FD90114974C9161
:104DA0004111F5CF81E0808380E890E09283818398
:104DB0006989262F30E050E040E0669570E090E091
:104DC00080E00E94EF25688BDFCF64E489EC92E0FD
:104DD0000E94C3366BE48AEC92E00E94C33670E016
:104DE00060E08BEC92E00E94D53670E060E08DECE4
:104DF00092E00C94D536CF93DF93D82F80E00E94B9
:104E00001225DD2319F080E00E942B250E945520F9
:104E100068EE73E080E090E00E941722C0E08C2FE3
:104E20000E9412258091E301863019F08C2F0E9498
:104E3000EB238C2F0E947624DD2319F08C2F0E9407
:104E40002B250E94552064E170E080E090E00E94F4
:104E50001722CF5FC03419F7DF91CF9108951F92C9
:104E60000F920FB60F9211242F933F938F939F931E
:104E7000AF93BF938091490190914A01A0914B015A
:104E8000B0914C013091480123E0230F2D3758F5A4
:104E90000196A11DB11D2093480180934901909373
:104EA0004A01A0934B01B0934C0180914D01909128
:104EB0004E01A0914F01B09150010196A11DB11D6D
:104EC00080934D0190934E01A0934F01B0935001F8
:104ED000BF91AF919F918F913F912F910F900FBEF6
:104EE0000F901F90189526E8230F0296A11DB11D63
:104EF000D2CF1F920F920FB60F9211242F933F9390
:104F00004F935F936F937F938F939F93AF93BF93D1
:104F1000EF93FF932FB7F8948091490190914A0144
:104F2000A0914B01B0914C012FBF40914301509192
:104F30004401609145017091460184179507A607C9
:104F4000B707C8F480914201811104C088B190E490
:104F5000892788B9FF91EF91BF91AF919F918F9170
:104F60007F916F915F914F913F912F910F900FBE65
:104F70000F901F9018950E941323ECCFCF93DF93CF
:104F8000E82FF0E0EF5AFE4F91E090A380E6809387
:104F900077019093DE018093E001C0912E01D091C2
:104FA0002F010E945D3628E030E040E050E00E9492
:104FB000F936685F7F4F8F4F9F4FC60FD71FD09333
:104FC0002F01C0932E018091320181111DC066E333
:104FD00089E791E00E94EF221092C9011092CB0163
:104FE0001092CA011092CD011092CF011092CE0101
:104FF0001092D1011092D3011092D2011092D501DA
:105000001092D7011092D6018AE296E20E94D8232C
:105010008091770182958170EDE6F1E0919199237D
:1050200031F09381992309F445C0811143C021E0F7
:10503000E137F20799F76BE68BE891E00E94EF22E7
:1050400066E389E791E00E94EF22E3EBF1E083EF72
:1050500093E21082118294838383359621E0E73CAA
:10506000F207B9F7EDE9F1E080E192E210821182F6
:1050700094838383359621E0E13BF207B9F71092E0
:10508000C9011092CB011092CA011092CD01109269
:10509000CF011092CE011092D1011092D301109243
:1050A000D2011092D5011092D7011092D60181E061
:1050B00080935401DF91CF910895CF93DF93E4E380
:1050C000F1E01582168280E18783148213821186B3
:1050D00080E291E0918380838CE892E2909340019A
:1050E00080933F0180E090E89093F3018093F20178
:1050F00046983E9AC1E5D1E083E48A831B821C82F4
:105100001D828AEF8E838F838887898782EC91E066
:105110009B878A8788E08B8B1C8A1D8A1E8A70E099
:1051200060E08DE591E00E94D82280910F0190917E
:105130001001A0911101B09112018C8F9D8FAE8F43
:10514000BF8F18A219A21AA21BA21CA21DA21EA2E6
:105150001FA218A61CA618AA1CAA1AAE1EAE109250
:1051600093011092970110929D0110929E0110924E
:105170009F011092A1011092A0011092A201109221
:10518000A3011092A4011092A6011092A501109201
:10519000A7011092A8011092A9011092AB011092E0
:1051A000AA011092AC011092AD011092AE011092C2
:1051B000B0011092AF011092B3011092B40110929D
:1051C000B5011092B7011092B6011092B801109279
:1051D000B9011092BA011092BC011092BB01109259
:1051E000BD011092BE011092BF011092C101109238
:1051F000C0011092C2011092C3011092C40110921A
:10520000C6011092C5011092C9011092CB011092F3
:10521000CA011092CC011092CD011092CF011092D0
:10522000CE011092D0011092D1011092D3011092B0
:10523000D2011092D4011092D5011092D701109290
:10524000D6011092D8011092DD011092DE01109269
:10525000DF011092E0011092E2011092E101109240
:10526000E301EEE2F1E01182108284E0828381E0CA
:10527000838314821582DF91CF910895CDB7DEB775
:105280006897DEBFCDBF11E01093E0001092E200FE
:105290001092E10080E28093D8001092D7008091B4
:1052A0006500806880936500789484B5826084BDD1
:1052B00084B5816084BD85B5826085BD85B581601A
:1052C00085BD80916E00816080936E001092810098
:1052D0008091810082608093810080918100816053
:1052E0008093810080918000816080938000809114
:1052F0009100826080939100809191008160809301
:105300009100809190008160809390008091C10015
:1053100084608093C1008091C10082608093C1004D
:105320008091C10081608093C1008091C300816041
:105330008093C3008091C00082608093C000809100
:10534000C20081608093C20080917A008460809363
:105350007A0080917A00826080937A0080917A004E
:10536000816080937A0080917A00806880937A00CF
:10537000559A209A5D9A289A8C9A84988AE090E0AF
:105380000E947F227C9B0E94712281EC80937C0092
:1053900085B1806F85B984B1877E84B984B1876E09
:1053A00084B95E9A5F988AB1806D8AB9769A6E9850
:1053B00081B3806F81BB899880B38D7080BB80E59D
:1053C0008CBD1DBD85E090E00E947F225F9A85E044
:1053D00090E00E947F225E985C98E2E1FEE084917A
:1053E0008EBD00000DB407FEFDCF31960EE0EF310B
:1053F000F007A9F75C9A81E88093640080916500CA
:105400008160809365000E94842287FF15C05C98AC
:1054100085EA8EBD00000DB407FEFDCF5C9A2E9884
:105420002F982D988091640080628093640081E0C1
:1054300083BF889513BEFCCF0E94842282FF46C0A2
:105440002D980E94842284788438D9F42D9A88EC8F
:1054500090E00E947F222F9882E090E00E94B53673
:105460008F3F29F06FEF82E090E00E94DB3684EFFF
:1054700091E00E947F222F9A0E94842284788438AF
:10548000D9F30E94842284718431D9F42D9A88EC56
:1054900090E00E947F222E9882E090E00E94B53634
:1054A000882329F060E082E090E00E94DB3684EF00
:1054B00091E00E947F222E9A0E948422847184317E
:1054C000D9F388EC90E00E947F22B6CF2D9A82E03B
:1054D00090E00E94B536882309F47AC03E9A3F9A3C
:1054E00081E080934701809164008E7F8093640007
:1054F00080917A00806480937A0080917A0086FDA2
:10550000FCCF00917800109179000E94F221AB014C
:10551000BC01C801B0E0A0E0DC01992788278C011C
:105520009D01040F151F261F371FC901B8012091C7
:105530006400216020936400611571058105910567
:1055400011F00E94AC368EE080933B0189EC92E032
:105550000E94B536182F8AEC92E00E94B5361434BA
:1055600011F48B3411F00E94E526FF24F39420916E
:10557000130130911401409115012B8B3C8B4D8B05
:105580004091160150911701609118014E8B5F8B6D
:10559000688F2090190130901A0140901B018FB73D
:1055A000F8944091490150914A0160914B017091EA
:1055B0004C018FBF80913C01942F981B892F9091B3
:1055C0003D01992351F080933E0110923D01E7CFB8
:1055D000109247013E983F9886CF90913B018917E2
:1055E00040F48F5F8917D8F6A1E0A3BF889513BE5A
:1055F000D6CFB1E0B0933D0140933C01809137019B
:1056000090913801019690933801809337018091F1
:10561000390180933A010E94842280933901E091FC
:105620002D01E83008F0BBCFF0E0E75EF44D0C94BC
:105630009037212B252B9E2BBC2BBC2C592D403475
:105640006B3410922C01F0922D0190913A019095BB
:105650008923A9F080912C01882319F080E280939E
:105660002C0180912C0181110EC08EE690E00E94E9
:10567000BA238CE290E00E94BA23F0922C01809130
:105680002C01882341F08F5F80932C01813219F423
:1056900082E080932D0120E042EC5EE161E170E068
:1056A00080E290E00E94642280913701909138015D
:1056B00060E370E00E946837883108F03AC011E179
:1056C0008C3008F01EE120E04BEB5EE169E170E018
:1056D0008BE590E00E946422812F90E020E134E38A
:1056E00041E081FD44E080FD440F82FD4295887FCA
:1056F000289FD0011124A30FA950BE4F8C91842B59
:105700008C9310FD09C020E047EB5EE16CE170E096
:105710008DE290E00E9464220E945520E7EFF1E0C4
:1057200080E094E0DF018C011D9201501040E1F710
:1057300036CF1FE1843280F210E2CECF84E0809336
:10574000300110922F0110922E01F092310110922F
:10575000330193E4909353019EE090933B011092A8
:105760000001109201018093020181E89EE10E94F4
:10577000D82383E080932D019091390180913A01E3
:105780008095892394FFC9C090910001903108F061
:10579000FACD9F5F9093000120910201982F98709D
:1057A000243009F0BDC09111C1C091E082FDBFC09D
:1057B00087FF03C096E090932D0185FDF0920201D2
:1057C00086FF03C082E080930201809137019091AF
:1057D000380168E170E00E946837811108C090913B
:1057E0000101923011F081E0890F809301012B8932
:1057F0003C894D892A873B874C874E895F89688D14
:105800004F835887698729823A824B8220E043EE92
:105810005DE162E070E089E190E00E94642220E0B6
:1058200049EB5DE170E060E082E090E00E9464227C
:1058300020E04BEA5DE170E060E08DE090E00E94E6
:10584000642220E049EB5DE170E060E086E790E0F3
:105850000E94642220E04BEA5DE170E060E08DE6AA
:1058600090E00E94642210910201113009F065C09D
:1058700080913701909138018F739927813208F018
:105880005CC020E047E95DE168E370E08FE590E00F
:105890000E94642221E04EEA5EE265E370E083E765
:1058A00090E00E94642220E041E15DE16BE270E063
:1058B0008AE290E00E944A220091010110E0E7E0B4
:1058C000F0E0EC0FFD1FE00FF11F608170E020E0C1
:1058D00047E95CE186E190E00E944A22E1E0F0E0E5
:1058E000EC0FFD1FE00FF11F608170E020E049E147
:1058F0005CE18BE490E00E944A22EAE0F0E0EC0FE9
:10590000FD1FE00FF11F608170E020E04BEB5BE1D9
:1059100084E390E00E944A22FFCE109200013CCF27
:10592000992309F445CF91E0213009F490E0909358
:10593000320194E090932D013BCF20E047E95DE1F7
:1059400068E370E082E090E00E94642220E04EEA8A
:105950005EE265E370E086E190E00E94642212302E
:1059600009F08FCF80913701909138018F7399277B
:10597000813208F086CF97CF0E94DF2280913201DA
:105980006AEF81116CED6093570160935801609349
:105990005A018111DAC182EC91E090935C0180930D
:1059A0005B018BE891E00E9431266BE68BE891E089
:1059B0000E94EF226091580189E791E00E94312610
:1059C00066E389E791E00E94EF2260915A0183EB40
:1059D00091E00E941C26E3EBF1E083EF93E210825A
:1059E000118294838383359611E0E73CF107B9F780
:1059F00060915A018DE991E00E941C26EDE9F1E0E9
:105A000080E192E21082118294838383359621E0B3
:105A1000E13BF207B9F700915B0110915C0198013D
:105A20003695279550E040E060E070E0CB010E94A1
:105A3000EF257093DA016093D9011093DC01009394
:105A4000DB011092C9011092CB011092CA01109291
:105A5000CD011092CF011092CE011092D10110927F
:105A6000D3011092D2011092D5011092D701109259
:105A7000D601F092760110927501F0926D01F092CC
:105A80006E01F0926F01F092700183E480935301F4
:105A90008EE080933B0189E780935101109255017C
:105AA0001092E301109254011092560185E0809308
:105AB0002D011091390150903A01809156018111C8
:105AC00020C48091650181111CC4809155018823F7
:105AD00009F4A9C08091370180FDA5C081E00E9432
